{"abi":[{"type":"constructor","inputs":[{"name":"_oracleReader","type":"address","internalType":"address"}],"stateMutability":"nonpayable"},{"type":"function","name":"AAVE_CONTRACT","inputs":[],"outputs":[{"name":"","type":"address","internalType":"address"}],"stateMutability":"view"},{"type":"function","name":"getBalanceInUsdValue","inputs":[],"outputs":[{"name":"","type":"uint256","internalType":"uint256"}],"stateMutability":"view"},{"type":"function","name":"oracleReader","inputs":[],"outputs":[{"name":"","type":"address","internalType":"contract OracleReader"}],"stateMutability":"view"},{"type":"function","name":"s_balanceOfContractInEth","inputs":[],"outputs":[{"name":"","type":"uint256","internalType":"uint256"}],"stateMutability":"view"},{"type":"function","name":"s_userPositions","inputs":[{"name":"","type":"address","internalType":"address"}],"outputs":[{"name":"depositsInContract","type":"uint256","internalType":"uint256"},{"name":"depositedInAave","type":"uint256","internalType":"uint256"},{"name":"userFirstContributionTimestamp","type":"uint256","internalType":"uint256"},{"name":"timestampToWithdraw","type":"uint256","internalType":"uint256"}],"stateMutability":"view"},{"type":"function","name":"supplyToAave","inputs":[{"name":"_amountToSupply","type":"uint256","internalType":"uint256"}],"outputs":[],"stateMutability":"nonpayable"},{"type":"function","name":"userDepositEth","inputs":[],"outputs":[],"stateMutability":"payable"},{"type":"error","name":"CoffeeChangeV2__CannotBeLessThanOrEqualToZero","inputs":[]}],"bytecode":{"object":"0x608060405234801561000f575f5ffd5b506040516109ca3803806109ca833981810160405281019061003191906100d4565b805f5f6101000a81548173ffffffffffffffffffffffffffffffffffffffff021916908373ffffffffffffffffffffffffffffffffffffffff160217905550506100ff565b5f5ffd5b5f73ffffffffffffffffffffffffffffffffffffffff82169050919050565b5f6100a38261007a565b9050919050565b6100b381610099565b81146100bd575f5ffd5b50565b5f815190506100ce816100aa565b92915050565b5f602082840312156100e9576100e8610076565b5b5f6100f6848285016100c0565b91505092915050565b6108be8061010c5f395ff3fe60806040526004361061006f575f3560e01c80639a2d757b1161004d5780639a2d757b146100ef578063d85bde1e146100f9578063e80f3ed214610138578063e8a66bc4146101625761006f565b80632a39c545146100735780634a9acee51461009d57806370ded44d146100c7575b5f5ffd5b34801561007e575f5ffd5b5061008761018c565b604051610094919061056e565b60405180910390f35b3480156100a8575f5ffd5b506100b1610192565b6040516100be919061056e565b60405180910390f35b3480156100d2575f5ffd5b506100ed60048036038101906100e891906105b5565b61027c565b005b6100f7610367565b005b348015610104575f5ffd5b5061011f600480360381019061011a919061063a565b6104ee565b60405161012f9493929190610665565b60405180910390f35b348015610143575f5ffd5b5061014c61051a565b60405161015991906106b7565b60405180910390f35b34801561016d575f5ffd5b50610176610532565b604051610183919061072b565b60405180910390f35b60015481565b5f5f60025f3373ffffffffffffffffffffffffffffffffffffffff1673ffffffffffffffffffffffffffffffffffffffff1681526020019081526020015f206001015490505f5f5f9054906101000a900473ffffffffffffffffffffffffffffffffffffffff1673ffffffffffffffffffffffffffffffffffffffff166357de26a46040518163ffffffff1660e01b81526004016040805180830381865afa158015610240573d5f5f3e3d5ffd5b505050506040513d601f19601f820116820180604052508101906102649190610758565b5080915050808261027591906107c3565b9250505090565b730568130e794429d2eebc4dafe18f25ff1a1ed8b673ffffffffffffffffffffffffffffffffffffffff1663474cf53d738bab6d1b75f19e9ed9fce8b9bd338844ff79ae27335f6040518463ffffffff1660e01b81526004016102e193929190610820565b5f604051808303815f87803b1580156102f8575f5ffd5b505af115801561030a573d5f5f3e3d5ffd5b505050508060025f3373ffffffffffffffffffffffffffffffffffffffff1673ffffffffffffffffffffffffffffffffffffffff1681526020019081526020015f206001015f82825461035d9190610855565b9250508190555050565b345f81116103a1576040517f91b5d7cc00000000000000000000000000000000000000000000000000000000815260040160405180910390fd5b3460015f8282546103b29190610855565b925050819055503460025f3373ffffffffffffffffffffffffffffffffffffffff1673ffffffffffffffffffffffffffffffffffffffff1681526020019081526020015f205f015f8282546104079190610855565b925050819055504260025f3373ffffffffffffffffffffffffffffffffffffffff1673ffffffffffffffffffffffffffffffffffffffff1681526020019081526020015f2050506312cf346c60025f3373ffffffffffffffffffffffffffffffffffffffff1673ffffffffffffffffffffffffffffffffffffffff1681526020019081526020015f206002015461049e9190610855565b60025f3373ffffffffffffffffffffffffffffffffffffffff1673ffffffffffffffffffffffffffffffffffffffff1681526020019081526020015f2050505f3490506104ea8161027c565b5050565b6002602052805f5260405f205f91509050805f0154908060010154908060020154908060030154905084565b730568130e794429d2eebc4dafe18f25ff1a1ed8b681565b5f5f9054906101000a900473ffffffffffffffffffffffffffffffffffffffff1681565b5f819050919050565b61056881610556565b82525050565b5f6020820190506105815f83018461055f565b92915050565b5f5ffd5b61059481610556565b811461059e575f5ffd5b50565b5f813590506105af8161058b565b92915050565b5f602082840312156105ca576105c9610587565b5b5f6105d7848285016105a1565b91505092915050565b5f73ffffffffffffffffffffffffffffffffffffffff82169050919050565b5f610609826105e0565b9050919050565b610619816105ff565b8114610623575f5ffd5b50565b5f8135905061063481610610565b92915050565b5f6020828403121561064f5761064e610587565b5b5f61065c84828501610626565b91505092915050565b5f6080820190506106785f83018761055f565b610685602083018661055f565b610692604083018561055f565b61069f606083018461055f565b95945050505050565b6106b1816105ff565b82525050565b5f6020820190506106ca5f8301846106a8565b92915050565b5f819050919050565b5f6106f36106ee6106e9846105e0565b6106d0565b6105e0565b9050919050565b5f610704826106d9565b9050919050565b5f610715826106fa565b9050919050565b6107258161070b565b82525050565b5f60208201905061073e5f83018461071c565b92915050565b5f815190506107528161058b565b92915050565b5f5f6040838503121561076e5761076d610587565b5b5f61077b85828601610744565b925050602061078c85828601610744565b9150509250929050565b7f4e487b71000000000000000000000000000000000000000000000000000000005f52601160045260245ffd5b5f6107cd82610556565b91506107d883610556565b92508282026107e681610556565b915082820484148315176107fd576107fc610796565b5b5092915050565b5f61ffff82169050919050565b61081a81610804565b82525050565b5f6060820190506108335f8301866106a8565b61084060208301856106a8565b61084d6040830184610811565b949350505050565b5f61085f82610556565b915061086a83610556565b925082820190508082111561088257610881610796565b5b9291505056fea2646970667358221220f86e67c3eca61d3c060f3b30a5c440b0bb9759eee1c3af00dcdbca89c13b255264736f6c634300081e0033","linkReferences":{}},"methodIdentifiers":{"AAVE_CONTRACT()":"e80f3ed2","getBalanceInUsdValue()":"4a9acee5","oracleReader()":"e8a66bc4","s_balanceOfContractInEth()":"2a39c545","s_userPositions(address)":"d85bde1e","supplyToAave(uint256)":"70ded44d","userDepositEth()":"9a2d757b"},"id":0}