{"abi":[{"type":"constructor","inputs":[],"stateMutability":"nonpayable"},{"type":"receive","stateMutability":"payable"},{"type":"function","name":"AAVE_POOL","inputs":[],"outputs":[{"name":"","type":"address","internalType":"contract IPool"}],"stateMutability":"view"},{"type":"function","name":"CHRONICLE_ETH_USD","inputs":[],"outputs":[{"name":"","type":"address","internalType":"contract IChronicle"}],"stateMutability":"view"},{"type":"function","name":"SELF_KISSER","inputs":[],"outputs":[{"name":"","type":"address","internalType":"contract ISelfKisser"}],"stateMutability":"view"},{"type":"function","name":"calculateETHForUSD","inputs":[{"name":"usdAmount","type":"uint256","internalType":"uint256"}],"outputs":[{"name":"ethAmount","type":"uint256","internalType":"uint256"}],"stateMutability":"view"},{"type":"function","name":"calculateUSDForETH","inputs":[{"name":"ethAmount","type":"uint256","internalType":"uint256"}],"outputs":[{"name":"usdAmount","type":"uint256","internalType":"uint256"}],"stateMutability":"view"},{"type":"function","name":"depositETH","inputs":[],"outputs":[],"stateMutability":"payable"},{"type":"function","name":"emergencyWithdraw","inputs":[],"outputs":[],"stateMutability":"nonpayable"},{"type":"function","name":"getContractStats","inputs":[],"outputs":[{"name":"_totalETHDeposited","type":"uint256","internalType":"uint256"},{"name":"_totalETHInvested","type":"uint256","internalType":"uint256"},{"name":"_totalUsers","type":"uint256","internalType":"uint256"},{"name":"contractETHBalance","type":"uint256","internalType":"uint256"},{"name":"currentETHPrice","type":"uint256","internalType":"uint256"}],"stateMutability":"view"},{"type":"function","name":"getETHPrice","inputs":[],"outputs":[{"name":"price","type":"uint256","internalType":"uint256"},{"name":"age","type":"uint256","internalType":"uint256"}],"stateMutability":"view"},{"type":"function","name":"getUserBalance","inputs":[{"name":"user","type":"address","internalType":"address"}],"outputs":[{"name":"totalDeposited","type":"uint256","internalType":"uint256"},{"name":"lastDepositTime","type":"uint256","internalType":"uint256"}],"stateMutability":"view"},{"type":"function","name":"owner","inputs":[],"outputs":[{"name":"","type":"address","internalType":"address"}],"stateMutability":"view"},{"type":"function","name":"renounceOwnership","inputs":[],"outputs":[],"stateMutability":"nonpayable"},{"type":"function","name":"totalETHDeposited","inputs":[],"outputs":[{"name":"","type":"uint256","internalType":"uint256"}],"stateMutability":"view"},{"type":"function","name":"totalETHInvested","inputs":[],"outputs":[{"name":"","type":"uint256","internalType":"uint256"}],"stateMutability":"view"},{"type":"function","name":"totalUsers","inputs":[],"outputs":[{"name":"","type":"uint256","internalType":"uint256"}],"stateMutability":"view"},{"type":"function","name":"transferOwnership","inputs":[{"name":"newOwner","type":"address","internalType":"address"}],"outputs":[],"stateMutability":"nonpayable"},{"type":"function","name":"userBalances","inputs":[{"name":"","type":"address","internalType":"address"}],"outputs":[{"name":"totalDeposited","type":"uint256","internalType":"uint256"},{"name":"lastDepositTime","type":"uint256","internalType":"uint256"}],"stateMutability":"view"},{"type":"function","name":"withdrawFromAave","inputs":[{"name":"amount","type":"uint256","internalType":"uint256"}],"outputs":[],"stateMutability":"nonpayable"},{"type":"event","name":"ETHDeposited","inputs":[{"name":"user","type":"address","indexed":true,"internalType":"address"},{"name":"amount","type":"uint256","indexed":false,"internalType":"uint256"},{"name":"timestamp","type":"uint256","indexed":false,"internalType":"uint256"}],"anonymous":false},{"type":"event","name":"ETHInvested","inputs":[{"name":"user","type":"address","indexed":true,"internalType":"address"},{"name":"amount","type":"uint256","indexed":false,"internalType":"uint256"},{"name":"aTokensReceived","type":"uint256","indexed":false,"internalType":"uint256"}],"anonymous":false},{"type":"event","name":"ETHWithdrawn","inputs":[{"name":"user","type":"address","indexed":true,"internalType":"address"},{"name":"amount","type":"uint256","indexed":false,"internalType":"uint256"},{"name":"timestamp","type":"uint256","indexed":false,"internalType":"uint256"}],"anonymous":false},{"type":"event","name":"OwnershipTransferred","inputs":[{"name":"previousOwner","type":"address","indexed":true,"internalType":"address"},{"name":"newOwner","type":"address","indexed":true,"internalType":"address"}],"anonymous":false},{"type":"error","name":"OwnableInvalidOwner","inputs":[{"name":"owner","type":"address","internalType":"address"}]},{"type":"error","name":"OwnableUnauthorizedAccount","inputs":[{"name":"account","type":"address","internalType":"address"}]},{"type":"error","name":"ReentrancyGuardReentrantCall","inputs":[]}],"bytecode":{"object":"0x608060405234801561000f575f5ffd5b503360015f819055505f73ffffffffffffffffffffffffffffffffffffffff168173ffffffffffffffffffffffffffffffffffffffff1603610088575f6040517f1e4fbdf700000000000000000000000000000000000000000000000000000000815260040161007f9190610232565b60405180910390fd5b6100978161013060201b60201c565b505f7370e58b7a1c884fffe7dbce5249337603a28b842290508073ffffffffffffffffffffffffffffffffffffffff1663c529a67973ea347db6ef446e03745c441c17018ef3d641bc8f6040518263ffffffff1660e01b81526004016100fd9190610232565b5f604051808303815f87803b158015610114575f5ffd5b505af1158015610126573d5f5f3e3d5ffd5b505050505061024b565b5f60015f9054906101000a900473ffffffffffffffffffffffffffffffffffffffff1690508160015f6101000a81548173ffffffffffffffffffffffffffffffffffffffff021916908373ffffffffffffffffffffffffffffffffffffffff1602179055508173ffffffffffffffffffffffffffffffffffffffff168173ffffffffffffffffffffffffffffffffffffffff167f8be0079c531659141344cd1fd0a4f28419497f9722a3daafe3b4186f6b6457e060405160405180910390a35050565b5f73ffffffffffffffffffffffffffffffffffffffff82169050919050565b5f61021c826101f3565b9050919050565b61022c81610212565b82525050565b5f6020820190506102455f830184610223565b92915050565b6111a6806102585f395ff3fe60806040526004361061010c575f3560e01c8063a607a8d911610094578063db2e21bc11610063578063db2e21bc1461036e578063dfe6b5d614610384578063efaadc48146103b2578063f2fde38b146103dc578063f6326fb31461040457610113565b8063a607a8d9146102c5578063bff1f9e1146102f0578063d630ad151461031a578063d638bf271461034457610113565b806347734892116100db57806347734892146101f6578063688f237b14610233578063715018a61461025b5780637b2c9070146102715780638da5cb5b1461029b57610113565b80630257251f1461011757806308a01675146101535780631b8b15681461017d57806326224c64146101b957610113565b3661011357005b5f5ffd5b348015610122575f5ffd5b5061013d60048036038101906101389190610c68565b61040e565b60405161014a9190610ca2565b60405180910390f35b34801561015e575f5ffd5b506101676104ba565b6040516101749190610d35565b60405180910390f35b348015610188575f5ffd5b506101a3600480360381019061019e9190610c68565b6104d2565b6040516101b09190610ca2565b60405180910390f35b3480156101c4575f5ffd5b506101df60048036038101906101da9190610d89565b61057e565b6040516101ed929190610db4565b60405180910390f35b348015610201575f5ffd5b5061021c60048036038101906102179190610d89565b61059e565b60405161022a929190610db4565b60405180910390f35b34801561023e575f5ffd5b5061025960048036038101906102549190610c68565b610611565b005b348015610266575f5ffd5b5061026f6106ce565b005b34801561027c575f5ffd5b506102856106e1565b6040516102929190610ca2565b60405180910390f35b3480156102a6575f5ffd5b506102af6106e7565b6040516102bc9190610dea565b60405180910390f35b3480156102d0575f5ffd5b506102d961070f565b6040516102e7929190610db4565b60405180910390f35b3480156102fb575f5ffd5b50610304610799565b6040516103119190610ca2565b60405180910390f35b348015610325575f5ffd5b5061032e61079f565b60405161033b9190610ca2565b60405180910390f35b34801561034f575f5ffd5b506103586107a5565b6040516103659190610e23565b60405180910390f35b348015610379575f5ffd5b506103826107bd565b005b34801561038f575f5ffd5b50610398610812565b6040516103a9959493929190610e3c565b60405180910390f35b3480156103bd575f5ffd5b506103c6610840565b6040516103d39190610ead565b60405180910390f35b3480156103e7575f5ffd5b5061040260048036038101906103fd9190610d89565b610858565b005b61040c6108dc565b005b5f5f73ea347db6ef446e03745c441c17018ef3d641bc8f73ffffffffffffffffffffffffffffffffffffffff1663393e5ede6040518163ffffffff1660e01b81526004016040805180830381865afa15801561046c573d5f5f3e3d5ffd5b505050506040513d601f19601f820116820180604052508101906104909190610eda565b50905080670de0b6b3a7640000846104a89190610f45565b6104b29190610fb3565b915050919050565b7307ea79f68b2b3df564d0a34f8e19d9b1e339814b81565b5f5f73ea347db6ef446e03745c441c17018ef3d641bc8f73ffffffffffffffffffffffffffffffffffffffff1663393e5ede6040518163ffffffff1660e01b81526004016040805180830381865afa158015610530573d5f5f3e3d5ffd5b505050506040513d601f19601f820116820180604052508101906105549190610eda565b509050670de0b6b3a7640000818461056c9190610f45565b6105769190610fb3565b915050919050565b6002602052805f5260405f205f91509050805f0154908060010154905082565b5f5f5f60025f8573ffffffffffffffffffffffffffffffffffffffff1673ffffffffffffffffffffffffffffffffffffffff1681526020019081526020015f206040518060400160405290815f82015481526020016001820154815250509050805f015181602001519250925050915091565b610619610a27565b5f811161065b576040517f08c379a00000000000000000000000000000000000000000000000000000000081526004016106529061103d565b60405180910390fd5b8060045f82825461066c919061105b565b925050819055503373ffffffffffffffffffffffffffffffffffffffff167fd3605746397fcbe273096353855da8c40c332aa45d2d97a5e19130a238e9e3bc82426040516106bb929190610db4565b60405180910390a26106cb610a6b565b50565b6106d6610a74565b6106df5f610afb565b565b60035481565b5f60015f9054906101000a900473ffffffffffffffffffffffffffffffffffffffff16905090565b5f5f73ea347db6ef446e03745c441c17018ef3d641bc8f73ffffffffffffffffffffffffffffffffffffffff1663393e5ede6040518163ffffffff1660e01b81526004016040805180830381865afa15801561076d573d5f5f3e3d5ffd5b505050506040513d601f19601f820116820180604052508101906107919190610eda565b915091509091565b60055481565b60045481565b7370e58b7a1c884fffe7dbce5249337603a28b842281565b6107c5610a74565b6107cd6106e7565b73ffffffffffffffffffffffffffffffffffffffff166108fc4790811502906040515f60405180830381858888f1935050505015801561080f573d5f5f3e3d5ffd5b50565b5f5f5f5f5f5f61082061070f565b509050600354600454600554478495509550955095509550509091929394565b73ea347db6ef446e03745c441c17018ef3d641bc8f81565b610860610a74565b5f73ffffffffffffffffffffffffffffffffffffffff168173ffffffffffffffffffffffffffffffffffffffff16036108d0575f6040517f1e4fbdf70000000000000000000000000000000000000000000000000000000081526004016108c79190610dea565b60405180910390fd5b6108d981610afb565b50565b6108e4610a27565b5f3411610926576040517f08c379a000000000000000000000000000000000000000000000000000000000815260040161091d906110d8565b60405180910390fd5b5f60025f3373ffffffffffffffffffffffffffffffffffffffff1673ffffffffffffffffffffffffffffffffffffffff1681526020019081526020015f2090505f815f0154036109885760055f815480929190610982906110f6565b91905055505b34815f015f82825461099a919061113d565b925050819055504281600101819055503460035f8282546109bb919061113d565b925050819055503373ffffffffffffffffffffffffffffffffffffffff167f5fb1eada1aad82df33a14506173621652514a3b876b0157aec3ca284a0472f613442604051610a0a929190610db4565b60405180910390a2610a1c3334610bbe565b50610a25610a6b565b565b60025f5403610a62576040517f3ee5aeb500000000000000000000000000000000000000000000000000000000815260040160405180910390fd5b60025f81905550565b60015f81905550565b610a7c610c2a565b73ffffffffffffffffffffffffffffffffffffffff16610a9a6106e7565b73ffffffffffffffffffffffffffffffffffffffff1614610af957610abd610c2a565b6040517f118cdaa7000000000000000000000000000000000000000000000000000000008152600401610af09190610dea565b60405180910390fd5b565b5f60015f9054906101000a900473ffffffffffffffffffffffffffffffffffffffff1690508160015f6101000a81548173ffffffffffffffffffffffffffffffffffffffff021916908373ffffffffffffffffffffffffffffffffffffffff1602179055508173ffffffffffffffffffffffffffffffffffffffff168173ffffffffffffffffffffffffffffffffffffffff167f8be0079c531659141344cd1fd0a4f28419497f9722a3daafe3b4186f6b6457e060405160405180910390a35050565b8060045f828254610bcf919061113d565b925050819055508173ffffffffffffffffffffffffffffffffffffffff167fa2f39e8770713ca370a0c9ac6efe0c80f3d46bfad86fa6427ccb88a55a8e8df58283604051610c1e929190610db4565b60405180910390a25050565b5f33905090565b5f5ffd5b5f819050919050565b610c4781610c35565b8114610c51575f5ffd5b50565b5f81359050610c6281610c3e565b92915050565b5f60208284031215610c7d57610c7c610c31565b5b5f610c8a84828501610c54565b91505092915050565b610c9c81610c35565b82525050565b5f602082019050610cb55f830184610c93565b92915050565b5f73ffffffffffffffffffffffffffffffffffffffff82169050919050565b5f819050919050565b5f610cfd610cf8610cf384610cbb565b610cda565b610cbb565b9050919050565b5f610d0e82610ce3565b9050919050565b5f610d1f82610d04565b9050919050565b610d2f81610d15565b82525050565b5f602082019050610d485f830184610d26565b92915050565b5f610d5882610cbb565b9050919050565b610d6881610d4e565b8114610d72575f5ffd5b50565b5f81359050610d8381610d5f565b92915050565b5f60208284031215610d9e57610d9d610c31565b5b5f610dab84828501610d75565b91505092915050565b5f604082019050610dc75f830185610c93565b610dd46020830184610c93565b9392505050565b610de481610d4e565b82525050565b5f602082019050610dfd5f830184610ddb565b92915050565b5f610e0d82610d04565b9050919050565b610e1d81610e03565b82525050565b5f602082019050610e365f830184610e14565b92915050565b5f60a082019050610e4f5f830188610c93565b610e5c6020830187610c93565b610e696040830186610c93565b610e766060830185610c93565b610e836080830184610c93565b9695505050505050565b5f610e9782610d04565b9050919050565b610ea781610e8d565b82525050565b5f602082019050610ec05f830184610e9e565b92915050565b5f81519050610ed481610c3e565b92915050565b5f5f60408385031215610ef057610eef610c31565b5b5f610efd85828601610ec6565b9250506020610f0e85828601610ec6565b9150509250929050565b7f4e487b71000000000000000000000000000000000000000000000000000000005f52601160045260245ffd5b5f610f4f82610c35565b9150610f5a83610c35565b9250828202610f6881610c35565b91508282048414831517610f7f57610f7e610f18565b5b5092915050565b7f4e487b71000000000000000000000000000000000000000000000000000000005f52601260045260245ffd5b5f610fbd82610c35565b9150610fc883610c35565b925082610fd857610fd7610f86565b5b828204905092915050565b5f82825260208201905092915050565b7f4d75737420776974686472617720706f73697469766520616d6f756e740000005f82015250565b5f611027601d83610fe3565b915061103282610ff3565b602082019050919050565b5f6020820190508181035f8301526110548161101b565b9050919050565b5f61106582610c35565b915061107083610c35565b925082820390508181111561108857611087610f18565b5b92915050565b7f4d757374206465706f73697420455448000000000000000000000000000000005f82015250565b5f6110c2601083610fe3565b91506110cd8261108e565b602082019050919050565b5f6020820190508181035f8301526110ef816110b6565b9050919050565b5f61110082610c35565b91507fffffffffffffffffffffffffffffffffffffffffffffffffffffffffffffffff820361113257611131610f18565b5b600182019050919050565b5f61114782610c35565b915061115283610c35565b925082820190508082111561116a57611169610f18565b5b9291505056fea2646970667358221220fd318cf4ac01bb90a4fbe155c20e362b2de929cee3c9f94a061b4268f7c0be4d64736f6c634300081e0033","linkReferences":{}},"methodIdentifiers":{"AAVE_POOL()":"08a01675","CHRONICLE_ETH_USD()":"efaadc48","SELF_KISSER()":"d638bf27","calculateETHForUSD(uint256)":"0257251f","calculateUSDForETH(uint256)":"1b8b1568","depositETH()":"f6326fb3","emergencyWithdraw()":"db2e21bc","getContractStats()":"dfe6b5d6","getETHPrice()":"a607a8d9","getUserBalance(address)":"47734892","owner()":"8da5cb5b","renounceOwnership()":"715018a6","totalETHDeposited()":"7b2c9070","totalETHInvested()":"d630ad15","totalUsers()":"bff1f9e1","transferOwnership(address)":"f2fde38b","userBalances(address)":"26224c64","withdrawFromAave(uint256)":"688f237b"},"id":4}