{"abi":[{"type":"constructor","inputs":[],"stateMutability":"nonpayable"},{"type":"function","name":"chronicle","inputs":[],"outputs":[{"name":"","type":"address","internalType":"contract IChronicle"}],"stateMutability":"view"},{"type":"function","name":"read","inputs":[],"outputs":[{"name":"val","type":"uint256","internalType":"uint256"},{"name":"age","type":"uint256","internalType":"uint256"}],"stateMutability":"view"},{"type":"function","name":"selfKisser","inputs":[],"outputs":[{"name":"","type":"address","internalType":"contract ISelfKisser"}],"stateMutability":"view"}],"bytecode":{"object":"0x608060405273ea347db6ef446e03745c441c17018ef3d641bc8f5f5f6101000a81548173ffffffffffffffffffffffffffffffffffffffff021916908373ffffffffffffffffffffffffffffffffffffffff1602179055507370e58b7a1c884fffe7dbce5249337603a28b842260015f6101000a81548173ffffffffffffffffffffffffffffffffffffffff021916908373ffffffffffffffffffffffffffffffffffffffff1602179055503480156100b6575f5ffd5b5060015f9054906101000a900473ffffffffffffffffffffffffffffffffffffffff1673ffffffffffffffffffffffffffffffffffffffff1663c529a6795f5f9054906101000a900473ffffffffffffffffffffffffffffffffffffffff166040518263ffffffff1660e01b815260040161013191906101a2565b5f604051808303815f87803b158015610148575f5ffd5b505af115801561015a573d5f5f3e3d5ffd5b505050506101bb565b5f73ffffffffffffffffffffffffffffffffffffffff82169050919050565b5f61018c82610163565b9050919050565b61019c81610182565b82525050565b5f6020820190506101b55f830184610193565b92915050565b61032e806101c85f395ff3fe608060405234801561000f575f5ffd5b506004361061003f575f3560e01c806332f929fc1461004357806357de26a414610061578063a34fa09214610080575b5f5ffd5b61004b61009e565b60405161005891906101fb565b60405180910390f35b6100696100c3565b60405161007792919061022c565b60405180910390f35b61008861015d565b6040516100959190610273565b60405180910390f35b60015f9054906101000a900473ffffffffffffffffffffffffffffffffffffffff1681565b5f5f5f5f9054906101000a900473ffffffffffffffffffffffffffffffffffffffff1673ffffffffffffffffffffffffffffffffffffffff1663393e5ede6040518163ffffffff1660e01b81526004016040805180830381865afa15801561012d573d5f5f3e3d5ffd5b505050506040513d601f19601f8201168201806040525081019061015191906102ba565b80925081935050509091565b5f5f9054906101000a900473ffffffffffffffffffffffffffffffffffffffff1681565b5f73ffffffffffffffffffffffffffffffffffffffff82169050919050565b5f819050919050565b5f6101c36101be6101b984610181565b6101a0565b610181565b9050919050565b5f6101d4826101a9565b9050919050565b5f6101e5826101ca565b9050919050565b6101f5816101db565b82525050565b5f60208201905061020e5f8301846101ec565b92915050565b5f819050919050565b61022681610214565b82525050565b5f60408201905061023f5f83018561021d565b61024c602083018461021d565b9392505050565b5f61025d826101ca565b9050919050565b61026d81610253565b82525050565b5f6020820190506102865f830184610264565b92915050565b5f5ffd5b61029981610214565b81146102a3575f5ffd5b50565b5f815190506102b481610290565b92915050565b5f5f604083850312156102d0576102cf61028c565b5b5f6102dd858286016102a6565b92505060206102ee858286016102a6565b915050925092905056fea2646970667358221220e8163fa0bcd01ef2c3b2d1ccda11713f788b88d1776de9d4459b75235018a3c564736f6c634300081e0033","linkReferences":{}},"methodIdentifiers":{"chronicle()":"a34fa092","read()":"57de26a4","selfKisser()":"32f929fc"},"id":5}